{
  "address": "0x4c5859f0F772848b2D91F1D83E2Fe57935348029",
  "abi": [
    {
      "inputs": [
        {
          "internalType": "address[]",
          "name": "addresses",
          "type": "address[]"
        },
        {
          "internalType": "address",
          "name": "joeRouterV2Address",
          "type": "address"
        },
        {
          "internalType": "address",
          "name": "nodeControllerAddress",
          "type": "address"
        }
      ],
      "stateMutability": "nonpayable",
      "type": "constructor"
    },
    {
      "anonymous": false,
      "inputs": [
        {
          "indexed": true,
          "internalType": "address",
          "name": "owner",
          "type": "address"
        },
        {
          "indexed": true,
          "internalType": "address",
          "name": "spender",
          "type": "address"
        },
        {
          "indexed": false,
          "internalType": "uint256",
          "name": "value",
          "type": "uint256"
        }
      ],
      "name": "Approval",
      "type": "event"
    },
    {
      "anonymous": false,
      "inputs": [
        {
          "indexed": true,
          "internalType": "address",
          "name": "newLiquidityWallet",
          "type": "address"
        },
        {
          "indexed": true,
          "internalType": "address",
          "name": "oldLiquidityWallet",
          "type": "address"
        }
      ],
      "name": "LiquidityWalletUpdated",
      "type": "event"
    },
    {
      "anonymous": false,
      "inputs": [
        {
          "indexed": true,
          "internalType": "address",
          "name": "previousOwner",
          "type": "address"
        },
        {
          "indexed": true,
          "internalType": "address",
          "name": "newOwner",
          "type": "address"
        }
      ],
      "name": "OwnershipTransferred",
      "type": "event"
    },
    {
      "anonymous": false,
      "inputs": [
        {
          "indexed": true,
          "internalType": "address",
          "name": "pair",
          "type": "address"
        },
        {
          "indexed": true,
          "internalType": "bool",
          "name": "value",
          "type": "bool"
        }
      ],
      "name": "SetAutomatedMarketMakerPair",
      "type": "event"
    },
    {
      "anonymous": false,
      "inputs": [
        {
          "indexed": false,
          "internalType": "uint256",
          "name": "tokensSwapped",
          "type": "uint256"
        },
        {
          "indexed": false,
          "internalType": "uint256",
          "name": "ethReceived",
          "type": "uint256"
        },
        {
          "indexed": false,
          "internalType": "uint256",
          "name": "tokensIntoLiqudity",
          "type": "uint256"
        }
      ],
      "name": "SwapAndLiquify",
      "type": "event"
    },
    {
      "anonymous": false,
      "inputs": [
        {
          "indexed": true,
          "internalType": "address",
          "name": "from",
          "type": "address"
        },
        {
          "indexed": true,
          "internalType": "address",
          "name": "to",
          "type": "address"
        },
        {
          "indexed": false,
          "internalType": "uint256",
          "name": "value",
          "type": "uint256"
        }
      ],
      "name": "Transfer",
      "type": "event"
    },
    {
      "anonymous": false,
      "inputs": [
        {
          "indexed": true,
          "internalType": "address",
          "name": "newAddress",
          "type": "address"
        },
        {
          "indexed": true,
          "internalType": "address",
          "name": "oldAddress",
          "type": "address"
        }
      ],
      "name": "UpdateUniswapV2Router",
      "type": "event"
    },
    {
      "inputs": [
        {
          "internalType": "address",
          "name": "",
          "type": "address"
        }
      ],
      "name": "_isBlacklisted",
      "outputs": [
        {
          "internalType": "bool",
          "name": "",
          "type": "bool"
        }
      ],
      "stateMutability": "view",
      "type": "function"
    },
    {
      "inputs": [
        {
          "internalType": "address",
          "name": "owner",
          "type": "address"
        },
        {
          "internalType": "address",
          "name": "spender",
          "type": "address"
        }
      ],
      "name": "allowance",
      "outputs": [
        {
          "internalType": "uint256",
          "name": "",
          "type": "uint256"
        }
      ],
      "stateMutability": "view",
      "type": "function"
    },
    {
      "inputs": [
        {
          "internalType": "address",
          "name": "spender",
          "type": "address"
        },
        {
          "internalType": "uint256",
          "name": "amount",
          "type": "uint256"
        }
      ],
      "name": "approve",
      "outputs": [
        {
          "internalType": "bool",
          "name": "",
          "type": "bool"
        }
      ],
      "stateMutability": "nonpayable",
      "type": "function"
    },
    {
      "inputs": [
        {
          "internalType": "address",
          "name": "",
          "type": "address"
        }
      ],
      "name": "automatedMarketMakerPairs",
      "outputs": [
        {
          "internalType": "bool",
          "name": "",
          "type": "bool"
        }
      ],
      "stateMutability": "view",
      "type": "function"
    },
    {
      "inputs": [
        {
          "internalType": "address",
          "name": "account",
          "type": "address"
        }
      ],
      "name": "balanceOf",
      "outputs": [
        {
          "internalType": "uint256",
          "name": "",
          "type": "uint256"
        }
      ],
      "stateMutability": "view",
      "type": "function"
    },
    {
      "inputs": [
        {
          "internalType": "address",
          "name": "account",
          "type": "address"
        },
        {
          "internalType": "bool",
          "name": "value",
          "type": "bool"
        }
      ],
      "name": "blacklistMalicious",
      "outputs": [],
      "stateMutability": "nonpayable",
      "type": "function"
    },
    {
      "inputs": [
        {
          "internalType": "uint256",
          "name": "amount",
          "type": "uint256"
        }
      ],
      "name": "boostReward",
      "outputs": [],
      "stateMutability": "nonpayable",
      "type": "function"
    },
    {
      "inputs": [],
      "name": "cashoutAll",
      "outputs": [],
      "stateMutability": "nonpayable",
      "type": "function"
    },
    {
      "inputs": [],
      "name": "cashoutPool",
      "outputs": [
        {
          "internalType": "address",
          "name": "",
          "type": "address"
        }
      ],
      "stateMutability": "view",
      "type": "function"
    },
    {
      "inputs": [
        {
          "internalType": "uint256",
          "name": "blocktime",
          "type": "uint256"
        }
      ],
      "name": "cashoutReward",
      "outputs": [],
      "stateMutability": "nonpayable",
      "type": "function"
    },
    {
      "inputs": [
        {
          "internalType": "bool",
          "name": "newMode",
          "type": "bool"
        }
      ],
      "name": "changeAutoDistri",
      "outputs": [],
      "stateMutability": "nonpayable",
      "type": "function"
    },
    {
      "inputs": [
        {
          "internalType": "uint256",
          "name": "newTime",
          "type": "uint256"
        }
      ],
      "name": "changeClaimTime",
      "outputs": [],
      "stateMutability": "nonpayable",
      "type": "function"
    },
    {
      "inputs": [
        {
          "internalType": "uint256",
          "name": "newGasDistri",
          "type": "uint256"
        }
      ],
      "name": "changeGasDistri",
      "outputs": [],
      "stateMutability": "nonpayable",
      "type": "function"
    },
    {
      "inputs": [
        {
          "internalType": "uint256",
          "name": "newNodePrice",
          "type": "uint256"
        }
      ],
      "name": "changeNodePrice",
      "outputs": [],
      "stateMutability": "nonpayable",
      "type": "function"
    },
    {
      "inputs": [
        {
          "internalType": "uint256",
          "name": "newPrice",
          "type": "uint256"
        }
      ],
      "name": "changeRewardPerNode",
      "outputs": [],
      "stateMutability": "nonpayable",
      "type": "function"
    },
    {
      "inputs": [
        {
          "internalType": "bool",
          "name": "newVal",
          "type": "bool"
        }
      ],
      "name": "changeSwapLiquify",
      "outputs": [],
      "stateMutability": "nonpayable",
      "type": "function"
    },
    {
      "inputs": [
        {
          "internalType": "uint256",
          "name": "amount",
          "type": "uint256"
        }
      ],
      "name": "compound",
      "outputs": [],
      "stateMutability": "nonpayable",
      "type": "function"
    },
    {
      "inputs": [
        {
          "internalType": "string",
          "name": "name",
          "type": "string"
        }
      ],
      "name": "createNodeWithTokens",
      "outputs": [],
      "stateMutability": "nonpayable",
      "type": "function"
    },
    {
      "inputs": [],
      "name": "deadWallet",
      "outputs": [
        {
          "internalType": "address",
          "name": "",
          "type": "address"
        }
      ],
      "stateMutability": "view",
      "type": "function"
    },
    {
      "inputs": [],
      "name": "decimals",
      "outputs": [
        {
          "internalType": "uint8",
          "name": "",
          "type": "uint8"
        }
      ],
      "stateMutability": "view",
      "type": "function"
    },
    {
      "inputs": [
        {
          "internalType": "address",
          "name": "spender",
          "type": "address"
        },
        {
          "internalType": "uint256",
          "name": "subtractedValue",
          "type": "uint256"
        }
      ],
      "name": "decreaseAllowance",
      "outputs": [
        {
          "internalType": "bool",
          "name": "",
          "type": "bool"
        }
      ],
      "stateMutability": "nonpayable",
      "type": "function"
    },
    {
      "inputs": [],
      "name": "distributionPool",
      "outputs": [
        {
          "internalType": "address",
          "name": "",
          "type": "address"
        }
      ],
      "stateMutability": "view",
      "type": "function"
    },
    {
      "inputs": [],
      "name": "expenseFee",
      "outputs": [
        {
          "internalType": "uint256",
          "name": "",
          "type": "uint256"
        }
      ],
      "stateMutability": "view",
      "type": "function"
    },
    {
      "inputs": [],
      "name": "expensePool",
      "outputs": [
        {
          "internalType": "address",
          "name": "",
          "type": "address"
        }
      ],
      "stateMutability": "view",
      "type": "function"
    },
    {
      "inputs": [],
      "name": "getAutoDistri",
      "outputs": [
        {
          "internalType": "bool",
          "name": "",
          "type": "bool"
        }
      ],
      "stateMutability": "view",
      "type": "function"
    },
    {
      "inputs": [],
      "name": "getClaimTime",
      "outputs": [
        {
          "internalType": "uint256",
          "name": "",
          "type": "uint256"
        }
      ],
      "stateMutability": "view",
      "type": "function"
    },
    {
      "inputs": [],
      "name": "getDistriCount",
      "outputs": [
        {
          "internalType": "uint256",
          "name": "",
          "type": "uint256"
        }
      ],
      "stateMutability": "view",
      "type": "function"
    },
    {
      "inputs": [],
      "name": "getGasDistri",
      "outputs": [
        {
          "internalType": "uint256",
          "name": "",
          "type": "uint256"
        }
      ],
      "stateMutability": "view",
      "type": "function"
    },
    {
      "inputs": [
        {
          "internalType": "address",
          "name": "account",
          "type": "address"
        }
      ],
      "name": "getNodeNumberOf",
      "outputs": [
        {
          "internalType": "uint256",
          "name": "",
          "type": "uint256"
        }
      ],
      "stateMutability": "view",
      "type": "function"
    },
    {
      "inputs": [],
      "name": "getNodePrice",
      "outputs": [
        {
          "internalType": "uint256",
          "name": "",
          "type": "uint256"
        }
      ],
      "stateMutability": "view",
      "type": "function"
    },
    {
      "inputs": [],
      "name": "getNodesCreatime",
      "outputs": [
        {
          "internalType": "string",
          "name": "",
          "type": "string"
        }
      ],
      "stateMutability": "view",
      "type": "function"
    },
    {
      "inputs": [],
      "name": "getNodesLastClaims",
      "outputs": [
        {
          "internalType": "string",
          "name": "",
          "type": "string"
        }
      ],
      "stateMutability": "view",
      "type": "function"
    },
    {
      "inputs": [],
      "name": "getNodesNames",
      "outputs": [
        {
          "internalType": "string",
          "name": "",
          "type": "string"
        }
      ],
      "stateMutability": "view",
      "type": "function"
    },
    {
      "inputs": [],
      "name": "getNodesRewards",
      "outputs": [
        {
          "internalType": "string",
          "name": "",
          "type": "string"
        }
      ],
      "stateMutability": "view",
      "type": "function"
    },
    {
      "inputs": [],
      "name": "getRewardAmount",
      "outputs": [
        {
          "internalType": "uint256",
          "name": "",
          "type": "uint256"
        }
      ],
      "stateMutability": "view",
      "type": "function"
    },
    {
      "inputs": [
        {
          "internalType": "address",
          "name": "account",
          "type": "address"
        }
      ],
      "name": "getRewardAmountOf",
      "outputs": [
        {
          "internalType": "uint256",
          "name": "",
          "type": "uint256"
        }
      ],
      "stateMutability": "view",
      "type": "function"
    },
    {
      "inputs": [],
      "name": "getRewardPerNode",
      "outputs": [
        {
          "internalType": "uint256",
          "name": "",
          "type": "uint256"
        }
      ],
      "stateMutability": "view",
      "type": "function"
    },
    {
      "inputs": [],
      "name": "getTotalCreatedNodes",
      "outputs": [
        {
          "internalType": "uint256",
          "name": "",
          "type": "uint256"
        }
      ],
      "stateMutability": "view",
      "type": "function"
    },
    {
      "inputs": [],
      "name": "getTotalStakedReward",
      "outputs": [
        {
          "internalType": "uint256",
          "name": "",
          "type": "uint256"
        }
      ],
      "stateMutability": "view",
      "type": "function"
    },
    {
      "inputs": [
        {
          "internalType": "address",
          "name": "spender",
          "type": "address"
        },
        {
          "internalType": "uint256",
          "name": "addedValue",
          "type": "uint256"
        }
      ],
      "name": "increaseAllowance",
      "outputs": [
        {
          "internalType": "bool",
          "name": "",
          "type": "bool"
        }
      ],
      "stateMutability": "nonpayable",
      "type": "function"
    },
    {
      "inputs": [],
      "name": "liquidityPoolFee",
      "outputs": [
        {
          "internalType": "uint256",
          "name": "",
          "type": "uint256"
        }
      ],
      "stateMutability": "view",
      "type": "function"
    },
    {
      "inputs": [],
      "name": "marketingFee",
      "outputs": [
        {
          "internalType": "uint256",
          "name": "",
          "type": "uint256"
        }
      ],
      "stateMutability": "view",
      "type": "function"
    },
    {
      "inputs": [],
      "name": "marketingPool",
      "outputs": [
        {
          "internalType": "address",
          "name": "",
          "type": "address"
        }
      ],
      "stateMutability": "view",
      "type": "function"
    },
    {
      "inputs": [],
      "name": "name",
      "outputs": [
        {
          "internalType": "string",
          "name": "",
          "type": "string"
        }
      ],
      "stateMutability": "view",
      "type": "function"
    },
    {
      "inputs": [],
      "name": "owner",
      "outputs": [
        {
          "internalType": "address",
          "name": "",
          "type": "address"
        }
      ],
      "stateMutability": "view",
      "type": "function"
    },
    {
      "inputs": [
        {
          "internalType": "string",
          "name": "oldName",
          "type": "string"
        },
        {
          "internalType": "string",
          "name": "newName",
          "type": "string"
        }
      ],
      "name": "renameNode",
      "outputs": [],
      "stateMutability": "nonpayable",
      "type": "function"
    },
    {
      "inputs": [],
      "name": "renounceOwnership",
      "outputs": [],
      "stateMutability": "nonpayable",
      "type": "function"
    },
    {
      "inputs": [],
      "name": "rewardsFee",
      "outputs": [
        {
          "internalType": "uint256",
          "name": "",
          "type": "uint256"
        }
      ],
      "stateMutability": "view",
      "type": "function"
    },
    {
      "inputs": [],
      "name": "sellFee",
      "outputs": [
        {
          "internalType": "uint256",
          "name": "",
          "type": "uint256"
        }
      ],
      "stateMutability": "view",
      "type": "function"
    },
    {
      "inputs": [
        {
          "internalType": "address",
          "name": "pair",
          "type": "address"
        },
        {
          "internalType": "bool",
          "name": "value",
          "type": "bool"
        }
      ],
      "name": "setAutomatedMarketMakerPair",
      "outputs": [],
      "stateMutability": "nonpayable",
      "type": "function"
    },
    {
      "inputs": [
        {
          "internalType": "address",
          "name": "account",
          "type": "address"
        },
        {
          "internalType": "bool",
          "name": "value",
          "type": "bool"
        }
      ],
      "name": "setExcludedFromFee",
      "outputs": [],
      "stateMutability": "nonpayable",
      "type": "function"
    },
    {
      "inputs": [
        {
          "internalType": "address",
          "name": "nodeManagement",
          "type": "address"
        }
      ],
      "name": "setNodeManagement",
      "outputs": [],
      "stateMutability": "nonpayable",
      "type": "function"
    },
    {
      "inputs": [],
      "name": "swapTokensAmount",
      "outputs": [
        {
          "internalType": "uint256",
          "name": "",
          "type": "uint256"
        }
      ],
      "stateMutability": "view",
      "type": "function"
    },
    {
      "inputs": [],
      "name": "symbol",
      "outputs": [
        {
          "internalType": "string",
          "name": "",
          "type": "string"
        }
      ],
      "stateMutability": "view",
      "type": "function"
    },
    {
      "inputs": [],
      "name": "totalFees",
      "outputs": [
        {
          "internalType": "uint256",
          "name": "",
          "type": "uint256"
        }
      ],
      "stateMutability": "view",
      "type": "function"
    },
    {
      "inputs": [],
      "name": "totalSupply",
      "outputs": [
        {
          "internalType": "uint256",
          "name": "",
          "type": "uint256"
        }
      ],
      "stateMutability": "view",
      "type": "function"
    },
    {
      "inputs": [
        {
          "internalType": "address",
          "name": "recipient",
          "type": "address"
        },
        {
          "internalType": "uint256",
          "name": "amount",
          "type": "uint256"
        }
      ],
      "name": "transfer",
      "outputs": [
        {
          "internalType": "bool",
          "name": "",
          "type": "bool"
        }
      ],
      "stateMutability": "nonpayable",
      "type": "function"
    },
    {
      "inputs": [
        {
          "internalType": "address",
          "name": "sender",
          "type": "address"
        },
        {
          "internalType": "address",
          "name": "recipient",
          "type": "address"
        },
        {
          "internalType": "uint256",
          "name": "amount",
          "type": "uint256"
        }
      ],
      "name": "transferFrom",
      "outputs": [
        {
          "internalType": "bool",
          "name": "",
          "type": "bool"
        }
      ],
      "stateMutability": "nonpayable",
      "type": "function"
    },
    {
      "inputs": [
        {
          "internalType": "address",
          "name": "to",
          "type": "address"
        },
        {
          "internalType": "string",
          "name": "nodeName",
          "type": "string"
        }
      ],
      "name": "transferNode",
      "outputs": [
        {
          "internalType": "bool",
          "name": "",
          "type": "bool"
        }
      ],
      "stateMutability": "nonpayable",
      "type": "function"
    },
    {
      "inputs": [
        {
          "internalType": "address",
          "name": "newOwner",
          "type": "address"
        }
      ],
      "name": "transferOwnership",
      "outputs": [],
      "stateMutability": "nonpayable",
      "type": "function"
    },
    {
      "inputs": [],
      "name": "treasuryPool",
      "outputs": [
        {
          "internalType": "address",
          "name": "",
          "type": "address"
        }
      ],
      "stateMutability": "view",
      "type": "function"
    },
    {
      "inputs": [],
      "name": "uniswapV2Pair",
      "outputs": [
        {
          "internalType": "address",
          "name": "",
          "type": "address"
        }
      ],
      "stateMutability": "view",
      "type": "function"
    },
    {
      "inputs": [],
      "name": "uniswapV2Router",
      "outputs": [
        {
          "internalType": "contract IJoeRouter02",
          "name": "",
          "type": "address"
        }
      ],
      "stateMutability": "view",
      "type": "function"
    },
    {
      "inputs": [
        {
          "internalType": "address payable",
          "name": "wall",
          "type": "address"
        }
      ],
      "name": "updateCashoutWall",
      "outputs": [],
      "stateMutability": "nonpayable",
      "type": "function"
    },
    {
      "inputs": [
        {
          "internalType": "address payable",
          "name": "wall",
          "type": "address"
        }
      ],
      "name": "updateExpenseWall",
      "outputs": [],
      "stateMutability": "nonpayable",
      "type": "function"
    },
    {
      "inputs": [
        {
          "internalType": "uint256",
          "name": "value",
          "type": "uint256"
        }
      ],
      "name": "updateFuturFee",
      "outputs": [],
      "stateMutability": "nonpayable",
      "type": "function"
    },
    {
      "inputs": [
        {
          "internalType": "uint256",
          "name": "value",
          "type": "uint256"
        }
      ],
      "name": "updateLiquiditFee",
      "outputs": [],
      "stateMutability": "nonpayable",
      "type": "function"
    },
    {
      "inputs": [
        {
          "internalType": "uint256",
          "name": "value",
          "type": "uint256"
        }
      ],
      "name": "updateMarketingFee",
      "outputs": [],
      "stateMutability": "nonpayable",
      "type": "function"
    },
    {
      "inputs": [
        {
          "internalType": "address payable",
          "name": "wall",
          "type": "address"
        }
      ],
      "name": "updateMarketingWall",
      "outputs": [],
      "stateMutability": "nonpayable",
      "type": "function"
    },
    {
      "inputs": [
        {
          "internalType": "uint256",
          "name": "value",
          "type": "uint256"
        }
      ],
      "name": "updateRewardsFee",
      "outputs": [],
      "stateMutability": "nonpayable",
      "type": "function"
    },
    {
      "inputs": [
        {
          "internalType": "address payable",
          "name": "wall",
          "type": "address"
        }
      ],
      "name": "updateRewardsWall",
      "outputs": [],
      "stateMutability": "nonpayable",
      "type": "function"
    },
    {
      "inputs": [
        {
          "internalType": "uint256",
          "name": "value",
          "type": "uint256"
        }
      ],
      "name": "updateRwSwapFee",
      "outputs": [],
      "stateMutability": "nonpayable",
      "type": "function"
    },
    {
      "inputs": [
        {
          "internalType": "uint256",
          "name": "value",
          "type": "uint256"
        }
      ],
      "name": "updateSellFee",
      "outputs": [],
      "stateMutability": "nonpayable",
      "type": "function"
    },
    {
      "inputs": [
        {
          "internalType": "uint256",
          "name": "newVal",
          "type": "uint256"
        }
      ],
      "name": "updateSwapTokensAmount",
      "outputs": [],
      "stateMutability": "nonpayable",
      "type": "function"
    }
  ],
  "transactionHash": "0x2718546a118c730a1ab1aa20c010a4384ca2c5a9ad05120288471a1850659247",
  "args": [
    [
      "0x3C44CdDdB6a900fa2b585dd299e03d12FA4293BC",
      "0x90F79bf6EB2c4f870365E785982E1f101E93b906",
      "0x15d34AAf54267DB7D7c367839AAf71A00a2C6A65",
      "0x9965507D1a55bcC2695C58ba16FB37d819B0A4dc",
      "0x976EA74026E726554dB657fA54763abd0C3a0aa9"
    ],
    "0x60aE616a2155Ee3d9A68541Ba4544862310933d4",
    "0x809d550fca64d94Bd9F66E60752A544199cfAC3D"
  ],
  "numDeployments": 1,
  "solcInputHash": "31ac7e8fcc31659cbe59c03c01970d9c",
  "bytecode": "0x6080604052600e80546001600160a01b03191661dead1790556016805461ffff1916610100179055681043561a88293000006017556c0c9f2c9cd04674edea400000006018553480156200005257600080fd5b50604051620048b9380380620048b98339810160408190526200007591620008d5565b604080518082018252600981526822b0b9bcaa37b5b2b760b91b6020808301918252835180850190945260048452634541535960e01b908401528151919291620000c291600391620007f5565b508051620000d8906004906020840190620007f5565b505050620000f5620000ef620006a560201b60201c565b620006a9565b82516005146200014c5760405162461bcd60e51b815260206004820152601c60248201527f436f756e74206f6620416464726573736573206d75737420626520350000000060448201526064015b60405180910390fd5b600680546001600160a01b0319166001600160a01b038316179055825183906000906200018957634e487b7160e01b600052603260045260246000fd5b6020026020010151600c60006101000a8154816001600160a01b0302191690836001600160a01b0316021790555082600181518110620001d957634e487b7160e01b600052603260045260246000fd5b6020026020010151600a60006101000a8154816001600160a01b0302191690836001600160a01b03160217905550826002815181106200022957634e487b7160e01b600052603260045260246000fd5b6020026020010151600b60006101000a8154816001600160a01b0302191690836001600160a01b03160217905550826003815181106200027957634e487b7160e01b600052603260045260246000fd5b6020026020010151600960006101000a8154816001600160a01b0302191690836001600160a01b0316021790555082600481518110620002c957634e487b7160e01b600052603260045260246000fd5b6020026020010151600d60006101000a8154816001600160a01b0302191690836001600160a01b0316021790555060005b600581101562000372576001601b60008684815181106200032b57634e487b7160e01b600052603260045260246000fd5b6020908102919091018101516001600160a01b03168252810191909152604001600020805460ff191691151591909117905580620003698162000a6a565b915050620002fa565b506009546001600160a01b031615801590620003985750600a546001600160a01b031615155b620003f45760405162461bcd60e51b815260206004820152602560248201527f465554555220262052455741524420414444524553532043414e4e4f54204245604482015264205a45524f60d81b606482015260840162000143565b603c600f819055601e601081905560056014819055601181905560158290556200044a92909162000436918391839190620006fb602090811b62002b9b17901c565b620006fb60201b62002b9b1790919060201c565b601255600c5460185462000484916001600160a01b0316906064906200047290603c62000a0b565b6200047e9190620009ea565b62000710565b600a54601854620004a9916001600160a01b0316906064906200047290601462000a0b565b600b54601854620004ce916001600160a01b0316906064906200047290601462000a0b565b600780546001600160a01b0319166001600160a01b0384169081179091556040805163c45a015560e01b8152905163c45a015591600480820192602092909190829003018186803b1580156200052357600080fd5b505afa15801562000538573d6000803e3d6000fd5b505050506040513d601f19601f820116820180604052508101906200055e9190620008b8565b6001600160a01b031663c9c6539630600760009054906101000a90046001600160a01b03166001600160a01b03166373b295c26040518163ffffffff1660e01b815260040160206040518083038186803b158015620005bc57600080fd5b505afa158015620005d1573d6000803e3d6000fd5b505050506040513d601f19601f82011682018060405250810190620005f79190620008b8565b6040516001600160e01b031960e085901b1681526001600160a01b03928316600482015291166024820152604401602060405180830381600087803b1580156200064057600080fd5b505af115801562000655573d6000803e3d6000fd5b505050506040513d601f19601f820116820180604052508101906200067b9190620008b8565b600880546001600160a01b0319166001600160a01b03929092169190911790555062000ab4915050565b3390565b600580546001600160a01b038381166001600160a01b0319831681179093556040519116919082907f8be0079c531659141344cd1fd0a4f28419497f9722a3daafe3b4186f6b6457e090600090a35050565b6000620007098284620009cf565b9392505050565b6001600160a01b038216620007685760405162461bcd60e51b815260206004820152601f60248201527f45524332303a206d696e7420746f20746865207a65726f206164647265737300604482015260640162000143565b80600260008282546200077c9190620009cf565b90915550506001600160a01b03821660009081526020819052604081208054839290620007ab908490620009cf565b90915550506040518181526001600160a01b038316906000907fddf252ad1be2c89b69c2b068fc378daa952ba7f163c4a11628f55a4df523b3ef9060200160405180910390a35050565b828054620008039062000a2d565b90600052602060002090601f01602090048101928262000827576000855562000872565b82601f106200084257805160ff191683800117855562000872565b8280016001018555821562000872579182015b828111156200087257825182559160200191906001019062000855565b506200088092915062000884565b5090565b5b8082111562000880576000815560010162000885565b80516001600160a01b0381168114620008b357600080fd5b919050565b600060208284031215620008ca578081fd5b62000709826200089b565b600080600060608486031215620008ea578182fd5b83516001600160401b038082111562000901578384fd5b818601915086601f83011262000915578384fd5b81516020828211156200092c576200092c62000a9e565b8160051b604051601f19603f8301168101818110868211171562000954576200095462000a9e565b604052838152828101945085830182870184018c101562000973578889fd5b8896505b84871015620009a0576200098b816200089b565b86526001969096019594830194830162000977565b509750620009b290508882016200089b565b955050505050620009c6604085016200089b565b90509250925092565b60008219821115620009e557620009e562000a88565b500190565b60008262000a0657634e487b7160e01b81526012600452602481fd5b500490565b600081600019048311821515161562000a285762000a2862000a88565b500290565b600181811c9082168062000a4257607f821691505b6020821081141562000a6457634e487b7160e01b600052602260045260246000fd5b50919050565b600060001982141562000a815762000a8162000a88565b5060010190565b634e487b7160e01b600052601160045260246000fd5b634e487b7160e01b600052604160045260246000fd5b613df58062000ac46000396000f3fe608060405234801561001057600080fd5b506004361061043e5760003560e01c80638013858b11610236578063b96392c11161013b578063da41b333116100c3578063f5a0725611610087578063f5a072561461091b578063f74c993414610923578063f7b9f94314610936578063f9afc7631461093e578063fb0a74941461094657600080fd5b8063da41b333146108b7578063db3ad6b5146108bf578063dd62ed3e146108c7578063ee1afdbf14610900578063f2fde38b1461090857600080fd5b8063c5ca7d6d1161010a578063c5ca7d6d14610858578063cf3828771461086b578063d0c298b31461087e578063d0f7747414610891578063d8929342146108a457600080fd5b8063b96392c114610817578063bbc7d0b91461082a578063bdf24a531461083d578063c04b46371461084557600080fd5b80639a7a23d6116101be578063a457c2d71161018d578063a457c2d7146107b3578063a5021a17146107c6578063a9059cbb146107ce578063aa5f7e26146107e1578063b62496f5146107f457600080fd5b80639a7a23d6146107725780639b87682a146107855780639c82751c14610798578063a0a8fe65146107ab57600080fd5b80638da5cb5b116102055780638da5cb5b146107205780638f0ba4ca146107315780639349c47d14610744578063938bc8111461075757806395d89b411461076a57600080fd5b80638013858b146106d457806385141a77146106e757806388c41d7c146106fa5780638bc9c7b01461070d57600080fd5b806342bc9fca116103475780635b0d4674116102cf5780636b67c4df116102935780636b67c4df1461067e57806370a0823114610687578063715018a6146106b05780637b770392146106b85780637e8100c0146106cb57600080fd5b80635b0d4674146106345780635f1c31821461063c57806365bfe430146106455780636612e66f146106585780636770474b1461066b57600080fd5b8063545579731161031657806354557973146105ea57806354f12f1f146105f2578063583bd7a6146105fb57806359640ed91461060e5780635a63ddbb1461062157600080fd5b806342bc9fca146105a957806348df5829146105bc57806348e5642b146105cf57806349bd5a5e146105d757600080fd5b806318160ddd116103ca5780632b14ca56116103995780632b14ca56146105625780632bb14e1d1461056b578063313ce5671461057457806339509351146105835780634195fbf31461059657600080fd5b806318160ddd146105115780631cdd3be3146105195780631d933a4a1461053c57806323b872dd1461054f57600080fd5b806309a69f571161041157806309a69f57146104ac5780630ab38aa3146104c257806313114a9d146104d5578063138a634a146104de5780631694505e146104e657600080fd5b8063016cffb21461044357806306fdde0314610458578063084a6bff14610476578063095ea7b314610489575b600080fd5b610456610451366004613635565b610959565b005b6104606109ae565b60405161046d9190613a4c565b60405180910390f35b6104566104843660046138c0565b610a40565b61049c610497366004613760565b610a96565b604051901515815260200161046d565b6104b4610aae565b60405190815260200161046d565b6104566104d0366004613635565b610c00565b6104b460125481565b610460610c4c565b6007546104f9906001600160a01b031681565b6040516001600160a01b03909116815260200161046d565b6002546104b4565b61049c610527366004613635565b60196020526000908152604090205460ff1681565b61045661054a3660046138c0565b610d9e565b61049c61055d3660046136a5565b610dcd565b6104b460135481565b6104b4600f5481565b6040516012815260200161046d565b61049c610591366004613760565b610e12565b6104566105a43660046138c0565b610e4c565b6104566105b73660046138c0565b610ebf565b600c546104f9906001600160a01b031681565b6104b4610f08565b6008546104f9906001600160a01b031681565b610456610f4d565b6104b460105481565b61045661060936600461378b565b61123e565b61045661061c3660046138c0565b611282565b6009546104f9906001600160a01b031681565b61046061130e565b6104b460175481565b6104566106533660046138c0565b6113e9565b6104566106663660046136e5565b6116d2565b6104566106793660046138c0565b611727565b6104b460145481565b6104b4610695366004613635565b6001600160a01b031660009081526020819052604090205490565b610456611756565b6104566106c63660046138c0565b61178c565b6104b460115481565b6104566106e23660046138c0565b6117e7565b600e546104f9906001600160a01b031681565b6104566107083660046138c0565b611842565b61045661071b3660046138c0565b611896565b6005546001600160a01b03166104f9565b61045661073f3660046137c3565b6118c5565b610456610752366004613635565b611dcd565b61049c610765366004613712565b611e19565b610460611ea7565b6104566107803660046136e5565b611eb6565b610456610793366004613869565b611f81565b6104566107a63660046138c0565b6120ec565b6104b4612147565b61049c6107c1366004613760565b61218c565b6104b4612229565b61049c6107dc366004613760565b61226e565b6104566107ef3660046138c0565b612284565b61049c610802366004613635565b601a6020526000908152604090205460ff1681565b6104b4610825366004613635565b612543565b600b546104f9906001600160a01b031681565b6104606125f4565b600d546104f9906001600160a01b031681565b600a546104f9906001600160a01b031681565b6104566108793660046138c0565b6126cf565b61045661088c366004613635565b612718565b61045661089f36600461378b565b612764565b6104566108b23660046136e5565b6127c0565b6104b4612815565b6104b461285a565b6104b46108d536600461366d565b6001600160a01b03918216600090815260016020908152604080832093909416825291909152205490565b61046061289f565b610456610916366004613635565b61297a565b6104b4612a15565b6104b4610931366004613635565b612a5a565b6104b4612a8d565b61049c612ad2565b610456610954366004613635565b612b4f565b6005546001600160a01b0316331461098c5760405162461bcd60e51b815260040161098390613af7565b60405180910390fd5b600d80546001600160a01b0319166001600160a01b0392909216919091179055565b6060600380546109bd90613cc8565b80601f01602080910402602001604051908101604052809291908181526020018280546109e990613cc8565b8015610a365780601f10610a0b57610100808354040283529160200191610a36565b820191906000526020600020905b815481529060010190602001808311610a1957829003601f168201915b5050505050905090565b6005546001600160a01b03163314610a6a5760405162461bcd60e51b815260040161098390613af7565b600f819055601454601154601054610a909291610a8a9182908690612b9b565b90612b9b565b60125550565b600033610aa4818585612ba7565b5060019392505050565b600033610acd5760405162461bcd60e51b815260040161098390613ac9565b6006546001600160a01b03166341ac82b0336040516001600160e01b031960e084901b1681526001600160a01b03909116600482015260240160206040518083038186803b158015610b1e57600080fd5b505afa158015610b32573d6000803e3d6000fd5b505050506040513d601f19601f82011682018060405250810190610b5691906137a7565b610b725760405162461bcd60e51b815260040161098390613aa2565b6006546001600160a01b031663619a635e336040516001600160e01b031960e084901b1681526001600160a01b03909116600482015260240160206040518083038186803b158015610bc357600080fd5b505afa158015610bd7573d6000803e3d6000fd5b505050506040513d601f19601f82011682018060405250810190610bfb91906138d8565b905090565b6005546001600160a01b03163314610c2a5760405162461bcd60e51b815260040161098390613af7565b600b80546001600160a01b0319166001600160a01b0392909216919091179055565b606033610c6b5760405162461bcd60e51b815260040161098390613ac9565b6006546001600160a01b03166341ac82b0336040516001600160e01b031960e084901b1681526001600160a01b03909116600482015260240160206040518083038186803b158015610cbc57600080fd5b505afa158015610cd0573d6000803e3d6000fd5b505050506040513d601f19601f82011682018060405250810190610cf491906137a7565b610d105760405162461bcd60e51b815260040161098390613aa2565b6006546001600160a01b031663334de3a2335b6040516001600160e01b031960e084901b1681526001600160a01b03909116600482015260240160006040518083038186803b158015610d6257600080fd5b505afa158015610d76573d6000803e3d6000fd5b505050506040513d6000823e601f3d908101601f19168201604052610bfb91908101906137f6565b6005546001600160a01b03163314610dc85760405162461bcd60e51b815260040161098390613af7565b601355565b6000610dda848484612ccb565b610aa48433610e0d85604051806060016040528060288152602001613d9860289139610e068a336108d5565b9190612f05565b612ba7565b3360008181526001602090815260408083206001600160a01b0387168452909152812054909190610aa49082908690610e0d908790613c3a565b6005546001600160a01b03163314610e765760405162461bcd60e51b815260040161098390613af7565b47811115610e815750475b6005546040516001600160a01b039091169082156108fc029083906000818181858888f19350505050158015610ebb573d6000803e3d6000fd5b5050565b6005546001600160a01b03163314610ee95760405162461bcd60e51b815260040161098390613af7565b6010819055601454601154600f54610a909291610a8a91829086612b9b565b600654604080516345193f5560e11b815290516000926001600160a01b031691638a327eaa916004808301926020929190829003018186803b158015610bc357600080fd5b3380610faf5760405162461bcd60e51b815260206004820152602b60248201527f4d414e494120435348543a20206372656174696f6e2066726f6d20746865207a60448201526a65726f206164647265737360a81b6064820152608401610983565b6001600160a01b03811660009081526019602052604090205460ff16156110185760405162461bcd60e51b815260206004820152601f60248201527f4d414e494120435348543a20426c61636b6c69737465642061646472657373006044820152606401610983565b6009546001600160a01b038281169116148015906110445750600a546001600160a01b03828116911614155b6110b65760405162461bcd60e51b815260206004820152603960248201527f4d414e494120435348543a2066757475726520616e642072657761726473506f60448201527f6f6c2063616e6e6f7420636173686f75742072657761726473000000000000006064820152608401610983565b6006546040516330cd31af60e11b81526001600160a01b038381166004830152600092169063619a635e9060240160206040518083038186803b1580156110fc57600080fd5b505afa158015611110573d6000803e3d6000fd5b505050506040513d601f19601f8201168201806040525081019061113491906138d8565b9050600081116111a35760405162461bcd60e51b815260206004820152603460248201527f4d414e494120435348543a20596f7520646f6e2774206861766520656e6f75676044820152731a081c995dd85c99081d1bc818d85cda081bdd5d60621b6064820152608401610983565b600a546111ba906001600160a01b03168383612f31565b60065460405163170a62c760e21b81526001600160a01b03848116600483015290911690635c298b1c90602401602060405180830381600087803b15801561120157600080fd5b505af1158015611215573d6000803e3d6000fd5b505050506040513d601f19601f8201168201806040525081019061123991906138d8565b505050565b6005546001600160a01b031633146112685760405162461bcd60e51b815260040161098390613af7565b601680549115156101000261ff0019909216919091179055565b6005546001600160a01b031633146112ac5760405162461bcd60e51b815260040161098390613af7565b600654604051631df3773160e31b8152600481018390526001600160a01b039091169063ef9bb988906024015b600060405180830381600087803b1580156112f357600080fd5b505af1158015611307573d6000803e3d6000fd5b5050505050565b60603361132d5760405162461bcd60e51b815260040161098390613ac9565b6006546001600160a01b03166341ac82b0336040516001600160e01b031960e084901b1681526001600160a01b03909116600482015260240160206040518083038186803b15801561137e57600080fd5b505afa158015611392573d6000803e3d6000fd5b505050506040513d601f19601f820116820180604052508101906113b691906137a7565b6113d25760405162461bcd60e51b815260040161098390613aa2565b6006546001600160a01b0316634a389fae33610d23565b33806114455760405162461bcd60e51b815260206004820152602560248201527f435348543a20206372656174696f6e2066726f6d20746865207a65726f206164604482015264647265737360d81b6064820152608401610983565b6001600160a01b03811660009081526019602052604090205460ff16156114ae5760405162461bcd60e51b815260206004820152601f60248201527f4d414e494120435348543a20426c61636b6c69737465642061646472657373006044820152606401610983565b6009546001600160a01b038281169116148015906114da5750600a546001600160a01b03828116911614155b6115415760405162461bcd60e51b815260206004820152603260248201527f435348543a20667574757220616e642072657761726473506f6f6c2063616e6e6044820152716f7420636173686f7574207265776172647360701b6064820152608401610983565b6006546040516329b8573160e21b81526001600160a01b03838116600483015260248201859052600092169063a6e15cc49060440160206040518083038186803b15801561158e57600080fd5b505afa1580156115a2573d6000803e3d6000fd5b505050506040513d601f19601f820116820180604052508101906115c691906138d8565b90506000811161162f5760405162461bcd60e51b815260206004820152602e60248201527f435348543a20596f7520646f6e2774206861766520656e6f756768207265776160448201526d1c99081d1bc818d85cda081bdd5d60921b6064820152608401610983565b600a54611646906001600160a01b03168383612f31565b60065460405163376db80160e11b81526001600160a01b0384811660048301526024820186905290911690636edb700290604401602060405180830381600087803b15801561169457600080fd5b505af11580156116a8573d6000803e3d6000fd5b505050506040513d601f19601f820116820180604052508101906116cc91906138d8565b50505050565b6005546001600160a01b031633146116fc5760405162461bcd60e51b815260040161098390613af7565b6001600160a01b03919091166000908152601b60205260409020805460ff1916911515919091179055565b6005546001600160a01b031633146117515760405162461bcd60e51b815260040161098390613af7565b601755565b6005546001600160a01b031633146117805760405162461bcd60e51b815260040161098390613af7565b61178a6000613085565b565b6005546001600160a01b031633146117b65760405162461bcd60e51b815260040161098390613af7565b6006546040516318df5db960e31b8152600481018390526001600160a01b039091169063c6faedc8906024016112d9565b6005546001600160a01b031633146118115760405162461bcd60e51b815260040161098390613af7565b60065460405163cece91eb60e01b8152600481018390526001600160a01b039091169063cece91eb906024016112d9565b6005546001600160a01b0316331461186c5760405162461bcd60e51b815260040161098390613af7565b80601181905550610a90601454610a8a601154610a8a601054600f54612b9b90919063ffffffff16565b6005546001600160a01b031633146118c05760405162461bcd60e51b815260040161098390613af7565b601555565b600381511180156118d7575060208151105b6119235760405162461bcd60e51b815260206004820181905260248201527f4e4f4445204352454154494f4e3a204e414d452053495a4520494e56414c49446044820152606401610983565b33806119885760405162461bcd60e51b815260206004820152602e60248201527f4e4f4445204352454154494f4e3a20206372656174696f6e2066726f6d20746860448201526d65207a65726f206164647265737360901b6064820152608401610983565b6001600160a01b03811660009081526019602052604090205460ff16156119fc5760405162461bcd60e51b815260206004820152602260248201527f4e4f4445204352454154494f4e3a20426c61636b6c6973746564206164647265604482015261737360f01b6064820152608401610983565b6009546001600160a01b03828116911614801590611a285750600a546001600160a01b03828116911614155b611a9a5760405162461bcd60e51b815260206004820152603760248201527f4e4f4445204352454154494f4e3a20667574757220616e64207265776172647360448201527f506f6f6c2063616e6e6f7420637265617465206e6f64650000000000000000006064820152608401610983565b60065460408051631e3fd85760e31b815290516000926001600160a01b03169163f1fec2b8916004808301926020929190829003018186803b158015611adf57600080fd5b505afa158015611af3573d6000803e3d6000fd5b505050506040513d601f19601f82011682018060405250810190611b1791906138d8565b905080611b39836001600160a01b031660009081526020819052604090205490565b1015611b9c5760405162461bcd60e51b815260206004820152602c60248201527f4e4f4445204352454154494f4e3a2042616c616e636520746f6f206c6f77206660448201526b37b91031b932b0ba34b7b71760a11b6064820152608401610983565b3060009081526020819052604090205460175481108015908190611bc75750601654610100900460ff165b8015611bd6575060165460ff16155b8015611bf057506005546001600160a01b03858116911614155b8015611c1557506001600160a01b0384166000908152601a602052604090205460ff16155b15611d57576016805460ff19166001179055601154600090611c4590606490611c3f9086906130d7565b906130e3565b600954909150611c5e906001600160a01b0316826130ef565b6000611c7a6064611c3f600f54876130d790919063ffffffff16565b90506000611c986064611c3f601554856130d790919063ffffffff16565b600a54909150611cb1906001600160a01b0316826130ef565b600a54611cd29030906001600160a01b0316611ccd858561313e565b612f31565b6000611cee6064611c3f601054896130d790919063ffffffff16565b9050611cf98161314a565b6000611d156064611c3f6014548a6130d790919063ffffffff16565b600b54909150611d2e906001600160a01b0316826130ef565b30600090815260208190526040902054611d47906131d1565b50506016805460ff191690555050505b611d62843085612f31565b6006546040516312b8603f60e01b81526001600160a01b03909116906312b8603f90611d9490879089906004016139e8565b600060405180830381600087803b158015611dae57600080fd5b505af1158015611dc2573d6000803e3d6000fd5b505050505050505050565b6005546001600160a01b03163314611df75760405162461bcd60e51b815260040161098390613af7565b600a80546001600160a01b0319166001600160a01b0392909216919091179055565b60065460405163fe58340b60e01b81526000916001600160a01b03169063fe58340b90611e4e903390879087906004016139bc565b602060405180830381600087803b158015611e6857600080fd5b505af1158015611e7c573d6000803e3d6000fd5b505050506040513d601f19601f82011682018060405250810190611ea091906137a7565b9392505050565b6060600480546109bd90613cc8565b6005546001600160a01b03163314611ee05760405162461bcd60e51b815260040161098390613af7565b6008546001600160a01b0383811691161415611f775760405162461bcd60e51b815260206004820152604a60248201527f544b4e3a205468652050616e63616b655377617020706169722063616e6e6f7460448201527f2062652072656d6f7665642066726f6d206175746f6d617465644d61726b65746064820152694d616b6572506169727360b01b608482015260a401610983565b610ebb8282613320565b6006546001600160a01b03166341ac82b0336040516001600160e01b031960e084901b1681526001600160a01b03909116600482015260240160206040518083038186803b158015611fd257600080fd5b505afa158015611fe6573d6000803e3d6000fd5b505050506040513d601f19601f8201168201806040525081019061200a91906137a7565b6120265760405162461bcd60e51b815260040161098390613aa2565b60038151118015612038575060208151105b6120845760405162461bcd60e51b815260206004820152601e60248201527f4e4f44452052454e414d453a204e414d452053495a4520494e56414c494400006044820152606401610983565b6006546001600160a01b0316635f3dc7043384846040518463ffffffff1660e01b81526004016120b693929190613a0c565b600060405180830381600087803b1580156120d057600080fd5b505af11580156120e4573d6000803e3d6000fd5b505050505050565b6005546001600160a01b031633146121165760405162461bcd60e51b815260040161098390613af7565b60065460405163d1871a8960e01b8152600481018390526001600160a01b039091169063d1871a89906024016112d9565b6006546040805163b8527aef60e01b815290516000926001600160a01b03169163b8527aef916004808301926020929190829003018186803b158015610bc357600080fd5b3360008181526001602090815260408083206001600160a01b0387168452909152812054909190838110156122115760405162461bcd60e51b815260206004820152602560248201527f45524332303a2064656372656173656420616c6c6f77616e63652062656c6f77604482015264207a65726f60d81b6064820152608401610983565b61221e8286868403612ba7565b506001949350505050565b60065460408051631e3fd85760e31b815290516000926001600160a01b03169163f1fec2b8916004808301926020929190829003018186803b158015610bc357600080fd5b600061227b338484612ccb565b50600192915050565b600081116122d45760405162461bcd60e51b815260206004820152601a60248201527f434d50443a20416d6f756e742063616e2774206265207a65726f0000000000006044820152606401610983565b60065460408051631e3fd85760e31b815290516000926001600160a01b03169163f1fec2b8916004808301926020929190829003018186803b15801561231957600080fd5b505afa15801561232d573d6000803e3d6000fd5b505050506040513d601f19601f8201168201806040525081019061235191906138d8565b905061235d8183613d1e565b156123c45760405162461bcd60e51b815260206004820152603160248201527f434d50443a20416d6f756e74206d7573742062652061206d756c7469706c65206044820152706f6620746865206e6f646520707269636560781b6064820152608401610983565b60006123d08284613c52565b90506000606080336123e0610f4d565b866123ea33610695565b10156124385760405162461bcd60e51b815260206004820152601b60248201527f434d50443a2042616c616e6365206973206e6f7420656e6f75676800000000006044820152606401610983565b61244142613409565b60065460405163112469f960e21b81526001600160a01b0384811660048301526124c5921690634491a7e49060240160206040518083038186803b15801561248857600080fd5b505afa15801561249c573d6000803e3d6000fd5b505050506040513d601f19601f820116820180604052508101906124c091906138d8565b613409565b6040516020016124d6929190613978565b6040516020818303038152906040529150600193505b84841161253a57816124fd85613409565b60405160200161250e929190613949565b6040516020818303038152906040529250612528836118c5565b8361253281613d03565b9450506124ec565b50505050505050565b6005546000906001600160a01b031633146125705760405162461bcd60e51b815260040161098390613af7565b6006546040516330cd31af60e11b81526001600160a01b0384811660048301529091169063619a635e906024015b60206040518083038186803b1580156125b657600080fd5b505afa1580156125ca573d6000803e3d6000fd5b505050506040513d601f19601f820116820180604052508101906125ee91906138d8565b92915050565b6060336126135760405162461bcd60e51b815260040161098390613ac9565b6006546001600160a01b03166341ac82b0336040516001600160e01b031960e084901b1681526001600160a01b03909116600482015260240160206040518083038186803b15801561266457600080fd5b505afa158015612678573d6000803e3d6000fd5b505050506040513d601f19601f8201168201806040525081019061269c91906137a7565b6126b85760405162461bcd60e51b815260040161098390613aa2565b6006546001600160a01b031663c92819ce33610d23565b6005546001600160a01b031633146126f95760405162461bcd60e51b815260040161098390613af7565b6014819055601154601054600f54610a90928492610a8a928391612b9b565b6005546001600160a01b031633146127425760405162461bcd60e51b815260040161098390613af7565b600980546001600160a01b0319166001600160a01b0392909216919091179055565b6005546001600160a01b0316331461278e5760405162461bcd60e51b815260040161098390613af7565b600654604051636d58441560e11b815282151560048201526001600160a01b039091169063dab0882a906024016112d9565b6005546001600160a01b031633146127ea5760405162461bcd60e51b815260040161098390613af7565b6001600160a01b03919091166000908152601960205260409020805460ff1916911515919091179055565b6006546040805163fb10d6fb60e01b815290516000926001600160a01b03169163fb10d6fb916004808301926020929190829003018186803b158015610bc357600080fd5b6006546040805163613ff46f60e01b815290516000926001600160a01b03169163613ff46f916004808301926020929190829003018186803b158015610bc357600080fd5b6060336128be5760405162461bcd60e51b815260040161098390613ac9565b6006546001600160a01b03166341ac82b0336040516001600160e01b031960e084901b1681526001600160a01b03909116600482015260240160206040518083038186803b15801561290f57600080fd5b505afa158015612923573d6000803e3d6000fd5b505050506040513d601f19601f8201168201806040525081019061294791906137a7565b6129635760405162461bcd60e51b815260040161098390613aa2565b6006546001600160a01b0316635759fb0233610d23565b6005546001600160a01b031633146129a45760405162461bcd60e51b815260040161098390613af7565b6001600160a01b038116612a095760405162461bcd60e51b815260206004820152602660248201527f4f776e61626c653a206e6577206f776e657220697320746865207a65726f206160448201526564647265737360d01b6064820152608401610983565b612a1281613085565b50565b600654604080516327b3bf1160e01b815290516000926001600160a01b0316916327b3bf11916004808301926020929190829003018186803b158015610bc357600080fd5b60065460405163112469f960e21b81526001600160a01b0383811660048301526000921690634491a7e49060240161259e565b60065460408051636f60a39360e11b815290516000926001600160a01b03169163dec14726916004808301926020929190829003018186803b158015610bc357600080fd5b600654604080516385c44d9d60e01b815290516000926001600160a01b0316916385c44d9d916004808301926020929190829003018186803b158015612b1757600080fd5b505afa158015612b2b573d6000803e3d6000fd5b505050506040513d601f19601f82011682018060405250810190610bfb91906137a7565b6005546001600160a01b03163314612b795760405162461bcd60e51b815260040161098390613af7565b600680546001600160a01b0319166001600160a01b0392909216919091179055565b6000611ea08284613c3a565b6001600160a01b038316612c095760405162461bcd60e51b8152602060048201526024808201527f45524332303a20617070726f76652066726f6d20746865207a65726f206164646044820152637265737360e01b6064820152608401610983565b6001600160a01b038216612c6a5760405162461bcd60e51b815260206004820152602260248201527f45524332303a20617070726f766520746f20746865207a65726f206164647265604482015261737360f01b6064820152608401610983565b6001600160a01b0383811660008181526001602090815260408083209487168084529482529182902085905590518481527f8c5be1e5ebec7d5bd14f71427d1e84f3dd0314c0f7b2291e5b200ac8c7c3b925910160405180910390a3505050565b6001600160a01b038316612cf15760405162461bcd60e51b815260040161098390613b2c565b6001600160a01b038216612d175760405162461bcd60e51b815260040161098390613a5f565b6001600160a01b03831660009081526019602052604090205460ff16158015612d5957506001600160a01b03821660009081526019602052604090205460ff16155b612d9b5760405162461bcd60e51b8152602060048201526013602482015272426c61636b6c6973746564206164647265737360681b6044820152606401610983565b6001600160a01b0383166000908152601b6020526040812054819060ff16158015612dea57506007546001600160a01b0385811691161480612dea57506008546001600160a01b038581169116145b15612ed55760065460405163041ac82b60e41b81526001600160a01b038781166004830152909116906341ac82b09060240160206040518083038186803b158015612e3457600080fd5b505afa158015612e48573d6000803e3d6000fd5b505050506040513d601f19601f82011682018060405250810190612e6c91906137a7565b612eb85760405162461bcd60e51b815260206004820152601a60248201527f437265617465206174206c65617374206f6e6520427261696e210000000000006044820152606401610983565b612ed26064611c3f601354866130d790919063ffffffff16565b91505b612edf838361313e565b600d54909150612efa9086906001600160a01b031684612f31565b611307858583612f31565b60008184841115612f295760405162461bcd60e51b81526004016109839190613a4c565b505050900390565b6001600160a01b038316612f575760405162461bcd60e51b815260040161098390613b2c565b6001600160a01b038216612f7d5760405162461bcd60e51b815260040161098390613a5f565b6001600160a01b03831660009081526020819052604090205481811015612ff55760405162461bcd60e51b815260206004820152602660248201527f45524332303a207472616e7366657220616d6f756e7420657863656564732062604482015265616c616e636560d01b6064820152608401610983565b6001600160a01b0380851660009081526020819052604080822085850390559185168152908120805484929061302c908490613c3a565b92505081905550826001600160a01b0316846001600160a01b03167fddf252ad1be2c89b69c2b068fc378daa952ba7f163c4a11628f55a4df523b3ef8460405161307891815260200190565b60405180910390a36116cc565b600580546001600160a01b038381166001600160a01b0319831681179093556040519116919082907f8be0079c531659141344cd1fd0a4f28419497f9722a3daafe3b4186f6b6457e090600090a35050565b6000611ea08284613c66565b6000611ea08284613c52565b476130f9826131d1565b6000613105478361313e565b6040519091506001600160a01b0385169082156108fc029083906000818181858888f19350505050158015611307573d6000803e3d6000fd5b6000611ea08284613c85565b60006131578260026130e3565b90506000613165838361313e565b905047613171836131d1565b600061317d478361313e565b9050613189838261352b565b60408051858152602081018390529081018490527f17bbfb9a6069321b6ded73bd96327c9e6b7212a5cd51ff219cd61370acafb5619060600160405180910390a15050505050565b604080516002808252606082018352600092602083019080368337019050509050308160008151811061321457634e487b7160e01b600052603260045260246000fd5b6001600160a01b03928316602091820292909201810191909152600754604080516339d94ae160e11b8152905191909316926373b295c2926004808301939192829003018186803b15801561326857600080fd5b505afa15801561327c573d6000803e3d6000fd5b505050506040513d601f19601f820116820180604052508101906132a09190613651565b816001815181106132c157634e487b7160e01b600052603260045260246000fd5b6001600160a01b0392831660209182029290920101526007546132e79130911684612ba7565b600754604051633b158ab160e11b81526001600160a01b039091169063762b1562906120b6908590600090869030904290600401613b71565b6001600160a01b0382166000908152601a602052604090205460ff16151581151514156133b55760405162461bcd60e51b815260206004820152603d60248201527f544b4e3a204175746f6d61746564206d61726b6574206d616b6572207061697260448201527f20697320616c72656164792073657420746f20746861742076616c75650000006064820152608401610983565b6001600160a01b0382166000818152601a6020526040808220805460ff191685151590811790915590519092917fffa9187bf1f18bf477bd0ea1bcbb64e93b6a98132473929edfce215cd9b16fab91a35050565b60608161342d5750506040805180820190915260018152600360fc1b602082015290565b8160005b8115613457578061344181613d03565b91506134509050600a83613c52565b9150613431565b60008167ffffffffffffffff81111561348057634e487b7160e01b600052604160045260246000fd5b6040519080825280601f01601f1916602001820160405280156134aa576020820181803683370190505b5090505b8415613523576134bf600183613c85565b91506134cc600a86613d1e565b6134d7906030613c3a565b60f81b8183815181106134fa57634e487b7160e01b600052603260045260246000fd5b60200101906001600160f81b031916908160001a90535061351c600a86613c52565b94506134ae565b949350505050565b6007546135439030906001600160a01b031684612ba7565b600754604051637c8d9fb960e11b8152306004820152602481018490526000604482018190526064820181905260848201524260a48201526001600160a01b039091169063f91b3f7290839060c4016060604051808303818588803b1580156135ab57600080fd5b505af11580156135bf573d6000803e3d6000fd5b50505050506040513d601f19601f8201168201806040525081019061130791906138f0565b600082601f8301126135f4578081fd5b813561360761360282613c12565b613be1565b81815284602083860101111561361b578283fd5b816020850160208301379081016020019190915292915050565b600060208284031215613646578081fd5b8135611ea081613d74565b600060208284031215613662578081fd5b8151611ea081613d74565b6000806040838503121561367f578081fd5b823561368a81613d74565b9150602083013561369a81613d74565b809150509250929050565b6000806000606084860312156136b9578081fd5b83356136c481613d74565b925060208401356136d481613d74565b929592945050506040919091013590565b600080604083850312156136f7578182fd5b823561370281613d74565b9150602083013561369a81613d89565b60008060408385031215613724578182fd5b823561372f81613d74565b9150602083013567ffffffffffffffff81111561374a578182fd5b613756858286016135e4565b9150509250929050565b60008060408385031215613772578182fd5b823561377d81613d74565b946020939093013593505050565b60006020828403121561379c578081fd5b8135611ea081613d89565b6000602082840312156137b8578081fd5b8151611ea081613d89565b6000602082840312156137d4578081fd5b813567ffffffffffffffff8111156137ea578182fd5b613523848285016135e4565b600060208284031215613807578081fd5b815167ffffffffffffffff81111561381d578182fd5b8201601f8101841361382d578182fd5b805161383b61360282613c12565b81815285602083850101111561384f578384fd5b613860826020830160208601613c9c565b95945050505050565b6000806040838503121561387b578182fd5b823567ffffffffffffffff80821115613892578384fd5b61389e868387016135e4565b935060208501359150808211156138b3578283fd5b50613756858286016135e4565b6000602082840312156138d1578081fd5b5035919050565b6000602082840312156138e9578081fd5b5051919050565b600080600060608486031215613904578081fd5b8351925060208401519150604084015190509250925092565b60008151808452613935816020860160208601613c9c565b601f01601f19169290920160200192915050565b6000835161395b818460208801613c9c565b83519083019061396f818360208801613c9c565b01949350505050565b65425241494e2d60d01b815260008351613999816006850160208801613c9c565b8351908301906139b0816006840160208801613c9c565b01600601949350505050565b6001600160a01b038481168252831660208201526060604082018190526000906138609083018461391d565b6001600160a01b03831681526040602082018190526000906135239083018461391d565b6001600160a01b0384168152606060208201819052600090613a309083018561391d565b8281036040840152613a42818561391d565b9695505050505050565b602081526000611ea0602083018461391d565b60208082526023908201527f45524332303a207472616e7366657220746f20746865207a65726f206164647260408201526265737360e81b606082015260800190565b6020808252600d908201526c2727902727a2229027aba722a960991b604082015260600190565b60208082526014908201527353454e4445522043414e2754204245205a45524f60601b604082015260600190565b6020808252818101527f4f776e61626c653a2063616c6c6572206973206e6f7420746865206f776e6572604082015260600190565b60208082526025908201527f45524332303a207472616e736665722066726f6d20746865207a65726f206164604082015264647265737360d81b606082015260800190565b600060a082018783526020878185015260a0604085015281875180845260c0860191508289019350845b81811015613bc05784516001600160a01b031683529383019391830191600101613b9b565b50506001600160a01b03969096166060850152505050608001529392505050565b604051601f8201601f1916810167ffffffffffffffff81118282101715613c0a57613c0a613d5e565b604052919050565b600067ffffffffffffffff821115613c2c57613c2c613d5e565b50601f01601f191660200190565b60008219821115613c4d57613c4d613d32565b500190565b600082613c6157613c61613d48565b500490565b6000816000190483118215151615613c8057613c80613d32565b500290565b600082821015613c9757613c97613d32565b500390565b60005b83811015613cb7578181015183820152602001613c9f565b838111156116cc5750506000910152565b600181811c90821680613cdc57607f821691505b60208210811415613cfd57634e487b7160e01b600052602260045260246000fd5b50919050565b6000600019821415613d1757613d17613d32565b5060010190565b600082613d2d57613d2d613d48565b500690565b634e487b7160e01b600052601160045260246000fd5b634e487b7160e01b600052601260045260246000fd5b634e487b7160e01b600052604160045260246000fd5b6001600160a01b0381168114612a1257600080fd5b8015158114612a1257600080fdfe45524332303a207472616e7366657220616d6f756e74206578636565647320616c6c6f77616e6365a2646970667358221220de050dd2fe58830a1b5a4d735ef7c0ba4be9f7c9433df7792a869123acfd366d64736f6c63430008040033",
  "devdoc": {
    "kind": "dev",
    "methods": {
      "allowance(address,address)": {
        "details": "See {IERC20-allowance}."
      },
      "approve(address,uint256)": {
        "details": "See {IERC20-approve}. NOTE: If `amount` is the maximum `uint256`, the allowance is not updated on `transferFrom`. This is semantically equivalent to an infinite approval. Requirements: - `spender` cannot be the zero address."
      },
      "balanceOf(address)": {
        "details": "See {IERC20-balanceOf}."
      },
      "decimals()": {
        "details": "Returns the number of decimals used to get its user representation. For example, if `decimals` equals `2`, a balance of `505` tokens should be displayed to a user as `5.05` (`505 / 10 ** 2`). Tokens usually opt for a value of 18, imitating the relationship between Ether and Wei. This is the value {ERC20} uses, unless this function is overridden; NOTE: This information is only used for _display_ purposes: it in no way affects any of the arithmetic of the contract, including {IERC20-balanceOf} and {IERC20-transfer}."
      },
      "decreaseAllowance(address,uint256)": {
        "details": "Atomically decreases the allowance granted to `spender` by the caller. This is an alternative to {approve} that can be used as a mitigation for problems described in {IERC20-approve}. Emits an {Approval} event indicating the updated allowance. Requirements: - `spender` cannot be the zero address. - `spender` must have allowance for the caller of at least `subtractedValue`."
      },
      "increaseAllowance(address,uint256)": {
        "details": "Atomically increases the allowance granted to `spender` by the caller. This is an alternative to {approve} that can be used as a mitigation for problems described in {IERC20-approve}. Emits an {Approval} event indicating the updated allowance. Requirements: - `spender` cannot be the zero address."
      },
      "name()": {
        "details": "Returns the name of the token."
      },
      "owner()": {
        "details": "Returns the address of the current owner."
      },
      "renounceOwnership()": {
        "details": "Leaves the contract without owner. It will not be possible to call `onlyOwner` functions anymore. Can only be called by the current owner. NOTE: Renouncing ownership will leave the contract without an owner, thereby removing any functionality that is only available to the owner."
      },
      "symbol()": {
        "details": "Returns the symbol of the token, usually a shorter version of the name."
      },
      "totalSupply()": {
        "details": "See {IERC20-totalSupply}."
      },
      "transferOwnership(address)": {
        "details": "Transfers ownership of the contract to a new account (`newOwner`). Can only be called by the current owner."
      }
    },
    "version": 1
  },
  "userdoc": {
    "kind": "user",
    "methods": {},
    "version": 1
  },
  "storageLayout": {
    "storage": [
      {
        "astId": 120,
        "contract": "contracts/EasyToken.sol:EasyToken",
        "label": "_balances",
        "offset": 0,
        "slot": "0",
        "type": "t_mapping(t_address,t_uint256)"
      },
      {
        "astId": 126,
        "contract": "contracts/EasyToken.sol:EasyToken",
        "label": "_allowances",
        "offset": 0,
        "slot": "1",
        "type": "t_mapping(t_address,t_mapping(t_address,t_uint256))"
      },
      {
        "astId": 128,
        "contract": "contracts/EasyToken.sol:EasyToken",
        "label": "_totalSupply",
        "offset": 0,
        "slot": "2",
        "type": "t_uint256"
      },
      {
        "astId": 130,
        "contract": "contracts/EasyToken.sol:EasyToken",
        "label": "_name",
        "offset": 0,
        "slot": "3",
        "type": "t_string_storage"
      },
      {
        "astId": 132,
        "contract": "contracts/EasyToken.sol:EasyToken",
        "label": "_symbol",
        "offset": 0,
        "slot": "4",
        "type": "t_string_storage"
      },
      {
        "astId": 7,
        "contract": "contracts/EasyToken.sol:EasyToken",
        "label": "_owner",
        "offset": 0,
        "slot": "5",
        "type": "t_address"
      },
      {
        "astId": 1916,
        "contract": "contracts/EasyToken.sol:EasyToken",
        "label": "nodeRewardManager",
        "offset": 0,
        "slot": "6",
        "type": "t_contract(NodeRewardController)5673"
      },
      {
        "astId": 1919,
        "contract": "contracts/EasyToken.sol:EasyToken",
        "label": "uniswapV2Router",
        "offset": 0,
        "slot": "7",
        "type": "t_contract(IJoeRouter02)6142"
      },
      {
        "astId": 1921,
        "contract": "contracts/EasyToken.sol:EasyToken",
        "label": "uniswapV2Pair",
        "offset": 0,
        "slot": "8",
        "type": "t_address"
      },
      {
        "astId": 1923,
        "contract": "contracts/EasyToken.sol:EasyToken",
        "label": "expensePool",
        "offset": 0,
        "slot": "9",
        "type": "t_address"
      },
      {
        "astId": 1925,
        "contract": "contracts/EasyToken.sol:EasyToken",
        "label": "distributionPool",
        "offset": 0,
        "slot": "10",
        "type": "t_address"
      },
      {
        "astId": 1927,
        "contract": "contracts/EasyToken.sol:EasyToken",
        "label": "marketingPool",
        "offset": 0,
        "slot": "11",
        "type": "t_address"
      },
      {
        "astId": 1929,
        "contract": "contracts/EasyToken.sol:EasyToken",
        "label": "treasuryPool",
        "offset": 0,
        "slot": "12",
        "type": "t_address"
      },
      {
        "astId": 1931,
        "contract": "contracts/EasyToken.sol:EasyToken",
        "label": "cashoutPool",
        "offset": 0,
        "slot": "13",
        "type": "t_address"
      },
      {
        "astId": 1934,
        "contract": "contracts/EasyToken.sol:EasyToken",
        "label": "deadWallet",
        "offset": 0,
        "slot": "14",
        "type": "t_address"
      },
      {
        "astId": 1936,
        "contract": "contracts/EasyToken.sol:EasyToken",
        "label": "rewardsFee",
        "offset": 0,
        "slot": "15",
        "type": "t_uint256"
      },
      {
        "astId": 1938,
        "contract": "contracts/EasyToken.sol:EasyToken",
        "label": "liquidityPoolFee",
        "offset": 0,
        "slot": "16",
        "type": "t_uint256"
      },
      {
        "astId": 1940,
        "contract": "contracts/EasyToken.sol:EasyToken",
        "label": "expenseFee",
        "offset": 0,
        "slot": "17",
        "type": "t_uint256"
      },
      {
        "astId": 1942,
        "contract": "contracts/EasyToken.sol:EasyToken",
        "label": "totalFees",
        "offset": 0,
        "slot": "18",
        "type": "t_uint256"
      },
      {
        "astId": 1944,
        "contract": "contracts/EasyToken.sol:EasyToken",
        "label": "sellFee",
        "offset": 0,
        "slot": "19",
        "type": "t_uint256"
      },
      {
        "astId": 1946,
        "contract": "contracts/EasyToken.sol:EasyToken",
        "label": "marketingFee",
        "offset": 0,
        "slot": "20",
        "type": "t_uint256"
      },
      {
        "astId": 1948,
        "contract": "contracts/EasyToken.sol:EasyToken",
        "label": "rwSwap",
        "offset": 0,
        "slot": "21",
        "type": "t_uint256"
      },
      {
        "astId": 1951,
        "contract": "contracts/EasyToken.sol:EasyToken",
        "label": "swapping",
        "offset": 0,
        "slot": "22",
        "type": "t_bool"
      },
      {
        "astId": 1954,
        "contract": "contracts/EasyToken.sol:EasyToken",
        "label": "swapLiquify",
        "offset": 1,
        "slot": "22",
        "type": "t_bool"
      },
      {
        "astId": 1961,
        "contract": "contracts/EasyToken.sol:EasyToken",
        "label": "swapTokensAmount",
        "offset": 0,
        "slot": "23",
        "type": "t_uint256"
      },
      {
        "astId": 1971,
        "contract": "contracts/EasyToken.sol:EasyToken",
        "label": "TOTAL_SUPPLY",
        "offset": 0,
        "slot": "24",
        "type": "t_uint256"
      },
      {
        "astId": 1975,
        "contract": "contracts/EasyToken.sol:EasyToken",
        "label": "_isBlacklisted",
        "offset": 0,
        "slot": "25",
        "type": "t_mapping(t_address,t_bool)"
      },
      {
        "astId": 1979,
        "contract": "contracts/EasyToken.sol:EasyToken",
        "label": "automatedMarketMakerPairs",
        "offset": 0,
        "slot": "26",
        "type": "t_mapping(t_address,t_bool)"
      },
      {
        "astId": 1983,
        "contract": "contracts/EasyToken.sol:EasyToken",
        "label": "_isExcludedFromFee",
        "offset": 0,
        "slot": "27",
        "type": "t_mapping(t_address,t_bool)"
      }
    ],
    "types": {
      "t_address": {
        "encoding": "inplace",
        "label": "address",
        "numberOfBytes": "20"
      },
      "t_bool": {
        "encoding": "inplace",
        "label": "bool",
        "numberOfBytes": "1"
      },
      "t_contract(IJoeRouter02)6142": {
        "encoding": "inplace",
        "label": "contract IJoeRouter02",
        "numberOfBytes": "20"
      },
      "t_contract(NodeRewardController)5673": {
        "encoding": "inplace",
        "label": "contract NodeRewardController",
        "numberOfBytes": "20"
      },
      "t_mapping(t_address,t_bool)": {
        "encoding": "mapping",
        "key": "t_address",
        "label": "mapping(address => bool)",
        "numberOfBytes": "32",
        "value": "t_bool"
      },
      "t_mapping(t_address,t_mapping(t_address,t_uint256))": {
        "encoding": "mapping",
        "key": "t_address",
        "label": "mapping(address => mapping(address => uint256))",
        "numberOfBytes": "32",
        "value": "t_mapping(t_address,t_uint256)"
      },
      "t_mapping(t_address,t_uint256)": {
        "encoding": "mapping",
        "key": "t_address",
        "label": "mapping(address => uint256)",
        "numberOfBytes": "32",
        "value": "t_uint256"
      },
      "t_string_storage": {
        "encoding": "bytes",
        "label": "string",
        "numberOfBytes": "32"
      },
      "t_uint256": {
        "encoding": "inplace",
        "label": "uint256",
        "numberOfBytes": "32"
      }
    }
  }
}